:020000040800F2
:10000000B8810120850200088D0200088F020008D7
:100010009102000893020008950200080000000009
:10002000000000000000000000000000C501000802
:10003000990200080000000021020008250F0008B6
:100040009F0200089F0200089F0200089F0200080C
:100050009F0200089F0200089F0200089F020008FC
:100060009F0200089F0200089F0200089F020008EC
:100070009F0200089F0200089F0200089F020008DC
:100080009F0200089F0200089F0200089F020008CC
:100090009F0200089F0200089F0200089F020008BC
:1000A0009F0200089F0200089F0200089F020008AC
:1000B0009F0200089F0200082D1000089F02000800
:1000C0009F0200089F0200089F0200089F0200088C
:1000D0009F020008751000089F0200089F02000898
:1000E0009F0200089F0200089F0200089F0200086C
:1000F0009F0200089F0200089F0200089F0200085C
:100100009F0200089F0200089F0200089F0200084B
:100110009F0200089F0200089F0200089F0200083B
:100120009F0200089F0200089F0200089F0200082B
:100130009F0200089F0200089F0200089F0200081B
:100140009F0200089F0200089F0200089F0200080B
:100150009F0200089F0200089F0200089F020008FB
:100160009F0200089F0200089F0200089F020008EB
:100170009F0200089F0200089F0200080000000084
:100180009F0200089F0200089F0200089F020008CB
:100190009F0200089F0200089F0200080000000064
:1001A0009F0200089F0200089F020008DFF810D09D
:1001B00000F0D0F800480047212A0008AFF3008083
:1001C000B88101202C4B19680868B0E8F04F80F323
:1001D0000988BFF36F8F4FF0000080F311887047DC
:1001E0000000000008480068006880F308884FF0AD
:1001F000000080F3148862B661B6BFF34F8FBFF37F
:100200006F8F00DF00BF00BF08ED00E0DFF80C00DB
:10021000016841F470010160704700BF88ED00E0A3
:10022000EFF30980BFF36F8F134B1A681EF0100FA6
:1002300008BF20ED108A20E9F04F106009B44FF09C
:10024000200080F31188BFF34F8FBFF36F8F04F04E
:10025000D5F84FF0000080F3118809BC19680868D0
:10026000B0E8F04F1EF0100F08BFB0EC108A80F31A
:100270000988BFF36F8F704748000020EFF30580B7
:10028000704700000648804706480047FEE7FEE743
:10029000FEE7FEE7FEE7FEE7FEE7FEE7FEE7FEE736
:1002A000590F0008AD01000840EA01039B0703D085
:1002B00009E008C9121F08C0042AFAD203E011F8A5
:1002C000013B00F8013B521EF9D27047D2B201E067
:1002D00000F8012B491EFBD270470022F6E710B54B
:1002E00013460A4604461946FFF7F0FF204610BDA4
:1002F0002DE9F05F0546002092469B46884606465B
:10030000814640241BE0284641464746224600F0ED
:1003100042F853465A46C01A914110D31146184626
:10032000224600F029F82D1A67EB01084F462246B5
:100330000120002100F020F817EB00094E41201E9B
:10034000A4F10104DFDC484631462A464346BDE8B5
:10035000F09F0000064C074D06E0E06840F0010306
:1003600094E8070098471034AC42F6D3FFF722FF19
:10037000B84E0008D84E0008202A04DB203A00FAC4
:1003800002F1002070479140C2F1200320FA03F3EC
:10039000194390407047202A04DB203A21FA02F0EA
:1003A0000021704721FA02F3D040C2F120029140AF
:1003B0000843194670472DE9FC4780468946144694
:1003C0001D460A9E042305224946404600F03EF899
:1003D000002301224946404602F040F880230A22C9
:1003E0004946404600F082FD2346092249464046E0
:1003F000009502F06DFA032301224946404602F0BF
:100400002DF8FF2700BF012001AB052249460090CF
:10041000404602F093F9781EC7B22FB19DF8040050
:1004200000F004000028EED0012033462222494685
:100430000090404602F082F90120731C21224946B7
:100440000090404602F07AF9BDE8FC872DE9FC41B6
:1004500005460E4617461C4600200190012001ABC0
:100460003A4631460090284602F068F99DF80400AB
:1004700020EA04033A463146284601F0EFFFBDE882
:10048000FC8100002DE9F04104464FF00008002CEB
:100490004BDB42F21070844247DA092C03DC25461C
:1004A0000026002700BF0A2C0BDB632C09DC0A2086
:1004B00094FBF0F100FB114594FBF0F600274FF0A0
:1004C0000008632C13DDB4F57A7F10DA0A2094FB60
:1004D000F0F100FB114594FBF0F00A2190FBF1F2E2
:1004E00001FB1206642094FBF0F74FF00008B4F50E
:1004F0007A7F1ADB42F20F70844216DC0A2094FBEA
:10050000F0F100FB114594FBF0F00A2190FBF1F2B1
:1005100001FB1206642094FBF0F090FBF1F201FB6A
:1005200012074FF47A7094FBF0F811480078E0B1AC
:1005300008F0FF030E4A117A5068012201F0F8F921
:10054000FBB20B4A117A5068022201F0F1F9F3B2C2
:10055000074A117A5068032201F0EAF9EBB2044A23
:10056000117A5068042201F0E3F9BDE8F08100003F
:100570002C01012070B505460E461446412C38D199
:1005800008231A463146284601F068FF3D23112210
:100590003146284601F062FF86231722314628465D
:1005A00001F05CFF7F2326223146284601F056FFEA
:1005B0001E232D223146284601F050FF00232C2215
:1005C0003146284601F04AFF8D232A22314628462B
:1005D00001F044FF3E232B223146284601F03EFF26
:1005E00042F2107000F023F83146284600F07AF904
:1005F00002E04FF0FF3070BD0020FCE770B504460C
:100600000D462946204600F073FB2946204600F09F
:100610005FF94FF4FA6000F00AF82946204600F02E
:1006200061F9412229462046FFF7A4FF70BD282129
:1006300007E0024601E0531E9AB2002AFBDC4B1E83
:1006400099B20029F5DC70472DE9FC4105460E46BC
:1006500000272F4B52223146284600F010FB00287D
:1006600050D12CA000F04CFD314A3146284600F014
:1006700050F9002842D12FA000F042FD2C4A31460B
:10068000284600F073FB002834D132A000F038FD7A
:100690002748364901236022CDE90010314628461B
:1006A00000F07FF9002821D131A000F029FD0127B9
:1006B000384B01223146284600F0ABFA90B936A0FB
:1006C00000F01EFD002406E03248015D3BA000F072
:1006D00017FD601CC4B2102CF6DB37A000F010FD33
:1006E000012712E037A000F00BFD0EE03AA000F069
:1006F00007FD0AE040A000F003FD06E044A000F082
:10070000FFFC02E04AA000F0FBFC3846BDE8FC819B
:100710009C0000204E464320436172642073656153
:1007200072636820737563636565646564210A009C
:100730009E0000206361726420616E74692D636F96
:100740006C6C6973696F6E2073756363656564654E
:1007500064210A00636172642073656C65637420B0
:10076000737563636565646564210A00A2000020F7
:100770005665726966792063617264207061737373
:10078000776F726420737563636565646564210ABD
:1007900000000000A47B0120646174612072656127
:1007A000642073756363656564656421746865209E
:1007B000646174612069733A0A0000002530327860
:1007C00000000000646174612072656164206661EC
:1007D000696C6564210A0000566572696679206358
:1007E0006172642070617373776F726420666169EF
:1007F0006C6564210A000000636172642073656C9B
:10080000656374206661696C6564210A00000000FC
:100810006361726420616E74692D636F6C6C6973BF
:10082000696F6E206661696C6564210A00000000D2
:100830004361726420736561726368206661696CEC
:100840006564210A00000000F8B505460E4614460E
:1008500000271D4B01223146284600F0DAF988B9FD
:1008600019480278407802EB00221748807802EBA2
:1008700000421548C07802EB0061002901DC00202D
:10088000F8BD00BF11480123C02231460090284620
:1008900000F0B3FAA8B90C4B01223146284600F00B
:1008A000B8F970B9012708480178407801EB0021B8
:1008B0000548807801EB00410348C07801EB0060F7
:1008C00020603846DCE70000A47B0120B80000204F
:1008D00070B504460D460323142229462046FFF72F
:1008E000B5FD70BD7CB504460D46012001AB142258
:1008F00029460090204601F021FF9DF8040000F0F9
:10090000030028B9032314222946204600F0EEFAFA
:100910007CBD2DE9F04389B0804689461546002705
:1009200008231A4649464046FFF790FD00230D2252
:100930004946404601F092FD80230E22494640463A
:10094000FFF784FD93208DF80C0020208DF80D001A
:1009500008A803A9022203ABCDE9002102900C22D2
:100960004946404600F061F8064686B9002407E093
:1009700003A8005D285503A8005D4740601CC4B271
:10098000042CF5DB03A8005DB84200D002268023CA
:100990000E224946404600F0A9FA304609B0BDE8AB
:1009A000F0832DE9F04F8BB08046894616461F46EE
:1009B000DDE914AB8DF814608DF81570002406E0A5
:1009C0001AF8041005AAA01C1154601CC4B2062C0D
:1009D000F6DB002407E01BF8041005AA04F1080068
:1009E0001154601CC4B2042CF5DB0AA805A90C2222
:1009F00005ABCDE9002102900E224946404600F0A9
:100A000014F80546012004AB0822494600904046F0
:100A100001F094FE25B99DF8100000F0080000B91F
:100A2000022528460BB0BDE8F08F2DE9F04F85B0C8
:100A30008046894614469A46DDF838B0109E02205A
:100A400004900027002003900C2C05D00E2C07D119
:100A500012271020039004E077273020039000E055
:100A600000BF00BF47F0800302224946404601F024
:100A7000F5FC8023042249464046FFF7E7FC0023AB
:100A800001224946404601F0E9FC80230A224946FA
:100A9000404600F02BFA5346092249464046CDF81D
:100AA00000B001F015FF234601224946404601F0FF
:100AB000D5FC0C2C05D180230D224946404600F080
:100AC00015FA4FF4487500BF012001AB04224946D6
:100AD0000090404601F032FE681E85B255B19DF887
:100AE000040000F0010028B99DF8040003990840B3
:100AF0000028E9D080230D2249464046FFF7A6FC96
:100B0000002D54D0012001AB0622494600904046FA
:100B100001F014FE9DF8040000F01B00002844D1F1
:100B200004909DF80400384000F0010008B1012055
:100B300004900C2C3BD1012001AB0A2249460090C5
:100B4000404601F0FBFD012002AB0C22494600901B
:100B5000404601F0F3FD9DF8080000F00700029008
:100B60009DF8080040B19DF80400401E9DF8081053
:100B700001EBC000308003E09DF80400C00030802D
:100B80009DF8040008B9012001909DF80400122886
:100B900001DD122001909DF80400009009224946D1
:100BA00040460F9B01F0CAFD01E002200490802323
:100BB0000C224946404600F099F90023012249469B
:100BC000404601F04BFC049805B0BDE8F08F30B50D
:100BD00089B004460D4650208DF80C0000208DF899
:100BE0000D000DF10E00022303AA294600902046B5
:100BF000FFF7E1FB08A803A9042203ABCDE900211C
:100C000002900C2229462046FFF70FFF002009B072
:100C100030BD2DE9F04389B08046894615461E4611
:100C200030208DF80C008DF80D500DF10E000223D0
:100C300003AA494600904046FFF7BDFB08A803A958
:100C4000042203ABCDE9002102900C224946404624
:100C5000FFF7EBFE07466FB9BDF82000902809D1D9
:100C6000002404E003A8005D3055601CC4B2102CC1
:100C7000F8DB00E00227384609B0BDE8F0832DE933
:100C8000F0418AB00746884615461C4608231A4696
:100C900041463846FFF7DAFB07230D224146384626
:100CA00001F0DCFB032314224146384600F01EF914
:100CB0008DF8105009A804A9012204ABCDE9002148
:100CC00002900C2241463846FFF7AFFE064656B961
:100CD000BDF82400102806D19DF8100020709DF862
:100CE0001100607000E0022630460AB0BDE8F081D5
:100CF00070B504460D460F2301222946204601F017
:100D0000ADFB4FF4FA60FFF792FC3D231122294618
:100D1000204601F0A3FB1E232D222946204601F088
:100D20009DFB00232C222946204601F097FB8D23B2
:100D30002A222946204601F091FB3E232B222946F8
:100D4000204601F08BFB402315222946204601F066
:100D500085FB8023332229462046FFF777FB40237B
:100D600015222946204601F079FB70BD2DE9F0419E
:100D70008AB007468846154693208DF810007020EB
:100D80008DF8110000208DF8160000240BE0295D7D
:100D900004AAA01C11549DF81600295D48408DF846
:100DA0001600601CC4B2042CF1DB0DF11700072300
:100DB00004AA414600903846FFF7FDFA08231A4678
:100DC00041463846FFF742FB09A804A9092204ABB3
:100DD000CDE9002102900C2241463846FFF725FE5E
:100DE00006462EB9BDF82400182801D1002600E0DF
:100DF000022630460AB0BDE8F0812DE9F04389B003
:100E00000746884616461D46DDF840908DF80C6072
:100E10008DF80D500DF10E00022303AA41460090FB
:100E20003846FFF7C8FA08A803A9042203ABCDE9A6
:100E3000002102900C2241463846FFF7F6FD044699
:100E40004CB9BDF82000042805D19DF80C0000F035
:100E50000F000A2800D00224E4B9D9F8000003905A
:100E600004A8042303AA414600903846FFF7A3FADA
:100E70000020089008A803A9062203ABCDE90021B1
:100E800002900C2241463846FFF7CFFD0446022C63
:100E900000D0002434BBB0208DF80C008DF80D502C
:100EA0000DF10E00022303AA414600903846FFF7D9
:100EB00082FA08A803A9042203ABCDE9002102901D
:100EC0000C2241463846FFF7B0FD04464CB9BDF848
:100ED0002000042805D19DF80C0000F00F000A281E
:100EE00000D00224204609B0BDE8F0832DE9FC4182
:100EF00005460E4617461C4600200190012001AB16
:100F00003A4631460090284601F018FC9DF804004E
:100F100040EA04033A463146284601F09FFABDE80C
:100F2000FC81000010B500BF202080F31188BFF3C2
:100F30004F8FBFF36F8F00BF03F044FD18B14FF028
:100F400080500449086000BF002080F3118800BF72
:100F500010BD000004ED00E008B53048006840F422
:100F600070002E4908602E48006840F001002C49AE
:100F7000086000BF2A48006800F002000028F9D08D
:100F800000BF27480830006840F08000244908313D
:100F900008600020009002E00098401C009000983B
:100FA0005028F9D31E480830006840F090001C49D2
:100FB000083108600020009002E00098401C00907A
:100FC00000985028F9D300BF15480830006820F079
:100FD00003001349083108601148006811490840AE
:100FE0000F4908600846006820F48020086000204F
:100FF0000B490831086000BF09480830006800202C
:101000000028F9D108480649091D08600020044954
:101010000C31086002F0B0FD08BD000088ED00E072
:1010200000380240FFFFF6FE1030002410B5012109
:101030000D4802F0A8FDB0B101210B4802F0A0FD5F
:101040000A480088002804DD08480088401E074937
:10105000088007480078012805D10448008810B9A5
:1010600003200349087010BD000800402201002041
:101070001F01002010B51B491B4802F0EAFE80B397
:101080001849194802F0D8FE174802F04FFEC4B2C2
:101090001648007890B916481649097844541548FE
:1010A0000078401C13490870012010490870002086
:1010B000114908700A201149088012E00B48007895
:1010C00001280ED10A480B49097844540948007890
:1010D000401C084908700020074908700A20074989
:1010E000088010BD05030500001001401F0100200D
:1010F000B47B01201E0100202001002022010020DD
:101100000FB4054B10B503A9044A029800F018F873
:1011100010BC5DF814FB000021170008240100201A
:1011200002E008C8121F08C1002AFAD170477047B0
:10113000002001E001C1121F002AFBD1704700000E
:101140002DE9FF4F8DB00F460546002606E0252805
:101150000BD0DDE90F1290476D1C761C2878002813
:10116000F5D111B03046BDE8F08F0024A246A1466B
:101170000122E94900E0044315F8013F203B02FA4F
:1011800003F00842F7D128782A2810D06FF02F02F8
:101190002878A0F13001092914D80AEB8A0102EB62
:1011A000410144F0020400EB010A6D1CF0E701CF9D
:1011B0005FEA000A03D544F40054CAF1000A44F07F
:1011C00002046D1C28782E2817D115F8010F44F061
:1011D00004042A280ED06FF02F022878A0F13001E5
:1011E00009290AD809EB890102EB410100EB010949
:1011F0006D1CF2E757F8049B6D1C28786C280FD003
:1012000006DC4C2817D068280DD06A2814D104E0D9
:10121000742810D07A280FD10DE044F400140AE0AD
:1012200044F4801401E044F440146978814202D10E
:1012300004F580146D1C6D1C28786E281ED00CDC03
:10124000632830D004DC00288BD0582811D19FE0CF
:10125000642867D069280CD164E073282DD004DCA1
:101260006F2872D0702804D194E075286ED0782849
:101270006DD0DDE90F129047761C4BE1C4F30250AC
:10128000022806D0032809D0042801CF09D006601F
:1012900040E101CFF117C0E900613BE101CF0680D9
:1012A00038E1067036E117F8040B8DF800000020D5
:1012B0008DF80100EB46012003E057F804BB4FF026
:1012C000FF3061074FF0000102D40DE008F1010189
:1012D000884649450FDA8045F8DB1BF808100029DD
:1012E000F4D108E008F1010188468142FADB1BF8DD
:1012F00008100029F6D1DDE90F23AAEB080081468A
:10130000214600F031F9304400EB080604E0DDE945
:101310000F121BF8010B9047B8F10108F7D22146D4
:101320004846F2E00A21C4F302524FF0000B089144
:10133000022A04D001CFC117032A09D00AE0FF1DF9
:1013400027F00707F7E8020108E02CE01EE01FE0A5
:1013500000B2C117042A01D140B2C117021E71F1B7
:10136000000206DA0023D0EB030063EB01012D221B
:1013700002E0220504D52B228DF82420012203E06F
:10138000E20701D02022F7E7904653E00A210BE064
:10139000102109E010214FF0000B44F004044FF03D
:1013A0000809089103E008214FF0000B0891C4F3ED
:1013B0000252022A04D001CF0021032A06D006E0FF
:1013C000FF1D27F00707F7E8020103E080B2042AB7
:1013D00000D1C0B24FF0000822072BD52A78702A1E
:1013E00007D0DDF820C08CF0100C5CEA0B0C05D0A7
:1013F0000EE040228DF82420012208E050EA01038B
:1014000006D030238DF824308DF825200222904616
:10141000089B83F0080353EA0B030BD150EA010247
:1014200001D1620706D530228DF824204FF0010843
:10143000A9F101092A78582A04D038A20B9208AAE7
:101440000A920BE03AA2F9E75B46089AFEF750FFD2
:101450000B9B9B5C0A9A521E0A92137050EA01027F
:10146000F2D10A98ADEB000000F1200B600702D525
:1014700024F4803401E04FF00109D94502DDA9EBE5
:101480000B0000E0002000EB0B0141440890AAEBA8
:10149000010AE00306D4DDE90F232146504600F09F
:1014A00063F806444FF0000908E009A911F80900A3
:1014B000DDE90F12904709F10109761CC145F4DB03
:1014C000E0030CD5DDE90F232146504600F04CF82F
:1014D000064404E0DDE90F1230209047761C08999D
:1014E000481E08900029F5DC08E00A980A9900785F
:1014F000491C0A91DDE90F129047761CBBF10001EF
:10150000ABF1010BF1DC21465046DDE90F2300F081
:1015100019F806446D1C21E60928010030313233E8
:10152000343536373839616263646566000000001F
:101530003031323334353637383941424344454609
:10154000000000002DE9F041044600251E46174624
:10155000880404D405E039462020B0476D1C641E81
:10156000F9D52846BDE8F0812DE9F0410446002573
:101570001E469046C80301D5302700E02027880486
:1015800004D505E041463846B0476D1C641EF9D5C8
:101590002846BDE8F08170B504460D460122294673
:1015A000204601F02FF870BD10B5002408480078DF
:1015B00060B1074A117A506801F0CBFB044604F091
:1015C000010008B1012010BD0020FCE70220FAE76D
:1015D0008C01012008B511480078E8B11AE001201B
:1015E0000E4A0090117A0E4B5068012201F0A6F8C5
:1015F0000B48007870B90B480078012809D1074AD8
:10160000117A00235068032200F028FF00200549CA
:10161000087000E0E3E700BF08BD000044010120BE
:10162000190000201400002008B510480078E0B12F
:1016300019E001200D4A0090117A0D4B50680122EB
:1016400001F07CF80A48007868B90A48007848B97F
:10165000064A117A64235068032200F0FFFE01203D
:101660000449087000E0E4E700BF08BD4401012020
:10167000190000201400002038B504460D46012052
:10168000234A0090117A234B5068002201F056F84B
:101690002048007800F00800002835D11C4A117A53
:1016A00000235068012200F0D9FE642002F040FDC2
:1016B000012019490870164A117A5068164A1378A1
:1016C000012200F0CBFE1DE00120114A0090117AAA
:1016D000104B5068002201F031F80E48007800F0FD
:1016E000080020B94FF4FA7002F022FD0AE0012050
:1016F0000A490870064A117A10235068012200F046
:10170000ADFE00E0E0E702E001200449087038BDCA
:1017100044010120170000201600002014000020C2
:1017200030B504460D46E1B2002001F025FB20460D
:1017300030BD000070B5054600242748854200D121
:1017400000BF40F6024002F005F9244931F81400C8
:1017500002F000F9224850F824200721214800F027
:101760006FF8214850F8242007211E4800F068F83F
:101770001B4850F82430012202211A4800F08FF84B
:10178000174850F8243002220021164800F0AEF825
:10179000154850F8243001220221124800F07FF849
:1017A000114850F82430022200210E4800F09EF823
:1017B000284602F0C1FA4FF4E131284602F042FA1D
:1017C0000421284602F061FB0821284602F065FB4F
:1017D000284602F01FFB70BD00480040D4000020E6
:1017E000D800002000080240DC00002010B50446AC
:1017F000104931F8140002F0ADF80F4951F82430C7
:101800000E4951F824000022012100F048F80A494D
:1018100051F82430094951F824000222002100F037
:1018200065F8054850F82400044951F824108862EE
:1018300010BD0000E0000020C8000020BC00002017
:10184000F0B503461C6A5D6A00200DE00126864063
:1018500016403EB187000F26BE40B443860001FA11
:1018600006F63443461CB0B20828EFD3082011E036
:101870000126864016405EB1A0F10806B7000F268B
:10188000BE40B543A0F10806B60001FA06F635439E
:10189000461CB0B21028EBD31C625D62F0BDF0B5FF
:1018A00004460D4616462168E268002019E001272B
:1018B00087401F409FB14FEA400C032707FA0CF7FF
:1018C000B943470005FA07F739434FEA400C0327AD
:1018D00007FA0CF7BA43470006FA07F73A43471CE2
:1018E000B8B21028E3D32160E260F0BDF0B50C4639
:1018F0001546012C03D146681E43466002E0466847
:101900009E434660826800210DE001268E401E4005
:101910003EB14F000326BE40B2434E0005FA06F624
:1019200032434E1CB1B21029EFD38260F0BD0000EB
:101930002DE9F04106460F4615461C46012D06D0FE
:10194000022D16D0032D26D0042D48D135E028488D
:1019500010F8143002223946304600F07FFD24484A
:1019600000EB4400437803223946304600F076FD10
:1019700035E01F4810F8143004223946304600F094
:101980006DFD1B4800EB4400437805223946304684
:1019900000F064FD23E0164810F8143006223946A2
:1019A000304600F05BFD124800EB4400437807220C
:1019B0003946304600F052FD11E00D4810F8143061
:1019C00008223946304600F049FD094800EB440042
:1019D000437809223946304600F040FD00BF00BF81
:1019E00081223946304600F00DFEBDE8F08100004E
:1019F000A44E000870B504460D4600230222294675
:101A0000204600F02BFD002303222946204600F04B
:101A100025FD002304222946204600F01FFD002357
:101A200005222946204600F019FD002306222946FA
:101A3000204600F013FD002307222946204600F02F
:101A40000DFD002308222946204600F007FD002353
:101A500009222946204600F001FD81222946204620
:101A600000F0D0FD70BD70B504460D462122294618
:101A7000204600F0C7FD29462046FFF7BBFF70BD9A
:101A800010B541F2150001F065FF002209490A482E
:101A900000F046FDA02300221146074800F040FE5A
:101AA000054800F00BFE4FF48061034800F080F819
:101AB00010BD0000A08601000054004010B540F6A3
:101AC000014001F047FF4FF4807204211248FFF7F4
:101AD000B7FE4FF4007204210F48FFF7B1FE4FF438
:101AE0008073012202210C48FFF7D9FE4FF4807366
:101AF000022201210848FFF7F9FE4FF4007301228A
:101B000002210548FFF7CBFE4FF4007302220121AA
:101B10000148FFF7EBFE10BD0004024010B541F292
:101B2000160001F017FF002209490A4800F0F8FCEE
:101B3000A02300221146074800F0F2FD054800F0FE
:101B4000BDFD4FF48061034800F032F810BD000085
:101B5000A08601000058004010B540F6054001F095
:101B6000F9FE022204211048FFF76AFE0122042137
:101B70000D48FFF765FE01231A4602210A48FFF7C8
:101B80008EFE0123022219460848FFF7AFFE02230A
:101B9000012219460448FFF782FE02231A4601215A
:101BA0000148FFF7A3FE10BD00140240000C0240E4
:101BB0000A460021016821F48061114301607047E9
:101BC0000A460021016821F4006111430160704759
:101BD00010B5002413E0C02000EB4400C1B2FC4863
:101BE00000F0E2FB48B1FA48FA494860C02000EB37
:101BF000440008720120087003E0601CC4B2042C89
:101C0000E9DB00BFF3480078012818D0002413E076
:101C1000C02000EB4400C1B2EF4800F0C5FB48B162
:101C2000ED48EC494860C02000EB440008720120F8
:101C3000087003E0601CC4B2042CE9DB00BFE54877
:101C40000078002821D0E5A0FFF75AFAE148406863
:101C5000DF49884204D1EBA1ECA0FFF751FA03E081
:101C6000EBA1EAA0FFF74CFAEBA0FFF749FAD9483D
:101C7000017AEAA0FFF744FAE9A0FFF741FAD54A52
:101C8000117A506800F0DCFF02E0E6A0FFF738FAB6
:101C9000002413E0E02000EB4400C1B2CC4800F087
:101CA00083FB48B1CA48E9494860E02000EB4400A2
:101CB00008720120087003E0601CC4B2042CE9DB48
:101CC00000BFE2480078012818D0002413E0E0208B
:101CD00000EB4400C1B2C04800F066FB48B1BE480A
:101CE000DA494860E02000EB4400087201200870E7
:101CF00003E0601CC4B2042CE9DB00BFD3480078C9
:101D000008B3D3A0FFF7FCF9D0484068B049884237
:101D100004D1BCA1BDA0FFF7F3F903E0BCA1BBA0B7
:101D2000FFF7EEF9BCA0FFF7EBF9C848017ABBA0BA
:101D3000FFF7E6F9BAA0FFF7E3F9C44A117A506851
:101D4000FFF791FE02E0CDA0FFF7DAF9002413E0DF
:101D5000382000EB4400C1B29D4800F025FB48B19B
:101D60009B48D1494860382000EB440008720120AC
:101D7000087003E0601CC4B2042CE9DB00BFCA4851
:101D80000078012818D0002413E0382000EB44002C
:101D9000C1B2914800F008FB48B18F48C249486081
:101DA000382000EB440008720120087003E0601C3A
:101DB000C4B2042CE9DB00BFBB48007808B3BBA069
:101DC000FFF79EF9B84840688149884204D18DA147
:101DD0008EA0FFF795F903E08DA18CA0FFF790F995
:101DE0008DA0FFF78DF9B048017A8CA0FFF788F934
:101DF0008BA0FFF785F9AC4A117A5068FFF73CFCDD
:101E000002E0B4A0FFF77CF900241CE0C4EBC4009E
:101E1000C0EB8410462202EB4000C1B26C4800F0D7
:101E2000C3FA70B16A48B5494860C4EBC400C0EB5E
:101E30008410462101EB4000B0490872012008706F
:101E400003E0601CC4B2022CE0DB00BFAB480078AA
:101E5000012821D000241CE0C4EBC400C0EB841096
:101E6000462202EB4000C1B25B4800F09DFA70B11F
:101E70005948A2494860C4EBC400C0EB8410462115
:101E800001EB40009D4908720120087003E0601CCE
:101E9000C4B2022CE0DB00BF9848007808B398A0D9
:101EA000FFF72EF9954840684949884204D155A169
:101EB00056A0FFF725F903E055A154A0FFF720F93C
:101EC00055A0FFF71DF98D48017A54A0FFF718F9C6
:101ED00053A0FFF715F9894A117A5068FFF75BFBA9
:101EE00002E090A0FFF70CF9002413E0882000EB3B
:101EF0004400C1B2364800F057FA48B1344892491C
:101F00004860882000EB440008720120087003E05C
:101F1000601CC4B2022CE9DB00BF8B4800780128AA
:101F200018D0002413E0882000EB4400C1B22A48F6
:101F300000F03AFA48B1284883494860882000EB0D
:101F4000440008720120087003E0601CC4B2022C37
:101F5000E9DB00BF7C48007808B37CA0FFF7D0F82D
:101F6000794840681A49884204D126A127A0FFF782
:101F7000C7F803E026A125A0FFF7C2F826A0FFF7C7
:101F8000BFF87148017A25A0FFF7BAF824A0FFF73F
:101F9000B7F86D4A117A506801F058FD02E074A05C
:101FA000FFF7AEF80024F9E0502000EB4400C1B286
:101FB000074800F0F9F948B10548764948605020D3
:101FC00000EB4400087201200870EAE0E4E0000041
:101FD00000540040380101200058004045312D5286
:101FE00047422D4C454420697320696E69746961CC
:101FF0006C697A6174696F6E20737563636573735E
:10200000210A00004932433000000000257300001F
:1020100049324331000000003A000000255800001A
:102020000A00000045312D5247422D4C454420699D
:102030007320696E697469616C697A6174696F6E25
:10204000206661696C656409210A00002C01012089
:1020500045312D4E495849452D5455424520697307
:1020600020696E697469616C697A6174696F6E2048
:1020700073756363657373210A00000045312D4E4B
:10208000495849452D5455424520697320696E6968
:102090007469616C697A6174696F6E206661696CDC
:1020A000656409210A0000004401012045332D43E5
:1020B00055525441494E20697320696E69746961B3
:1020C0006C697A6174696F6E20737563636573738D
:1020D000210A000045332D4355525441494E206991
:1020E0007320696E697469616C697A6174696F6E75
:1020F000206661696C656409210A00005C010120A9
:1021000053322D4C757820697320696E697469614A
:102110006C697A6174696F6E20737563636573733C
:10212000210A000053322D4C757820697320696EA6
:10213000697469616C697A6174696F6E206661693E
:102140006C656409210A00006801012053322D48A2
:10215000756D20697320696E697469616C697A6153
:1021600074696F6E2073756363657373210A000071
:1021700053322D48756D20697320696E69746961E9
:102180006C697A6174696F6E206661696C65640957
:10219000210A000080010120601CC4B2042CFFF65B
:1021A00003AF00BF58480078012818D0002413E07E
:1021B000502000EB4400C1B2544800F0F5F848B19B
:1021C000524851494860502000EB440008720120F9
:1021D000087003E0601CC4B2042CE9DB00BF4A486D
:1021E000007840B34AA0FEF78BFF4748406851494A
:1021F000884206D1AFF2F411AFF2F010FEF780FF83
:1022000005E0AFF2F411AFF2FC10FEF779FFAFF288
:10221000F810FEF775FF3C48017AAFF20020FEF798
:102220006FFFAFF20420FEF76BFF374A117A506858
:10223000FEF7E4F902E040A0FEF762FF002413E09D
:10224000302000EB4400C1B23A4800F0ADF848B18C
:10225000384842494860302000EB440008720120B1
:10226000087003E0601CC4B2042CE9DB00BF3B48EB
:102270000078012818D0002413E0302000EB44003F
:10228000C1B2224800F090F848B120483349486074
:10229000302000EB440008720120087003E0601C4D
:1022A000C4B2042CE9DB00BF2C48007838B32CA062
:1022B000FEF726FF294840681E49884206D1AFF242
:1022C000BC21AFF2B820FEF71BFF05E0AFF2C02142
:1022D000AFF2C820FEF714FFAFF2C420FEF710FFE4
:1022E0001E48017AAFF2CC20FEF70AFF24A0FEF7C9
:1022F00007FF1A4A117A506800F01BFD02E021A086
:10230000FEF7FEFE10BD00008001012000580040D5
:1023100053352D4E464320697320696E6974696197
:102320006C697A6174696F6E20737563636573732A
:10233000210A00000054004053352D4E46432069C9
:102340007320696E697469616C697A6174696F6E12
:10235000206661696C656409210A00008C01012016
:1023600053372D495220697320696E697469616C15
:10237000697A6174696F6E20737563636573732125
:102380000A00000053372D495220697320696E6995
:102390007469616C697A6174696F6E206661696CD9
:1023A000656409210A0000002DE9F04106460F4648
:1023B000002400BF40F20161304600F098F9002887
:1023C000F8D1304600F07AFA00BF4FF4A0613046F1
:1023D00000F08DF90028F8D06FF001023946304640
:1023E00000F094F906E0601C84B24EF6602084424E
:1023F00000DD06E040F20151304600F078F9002897
:10240000F1D000BF4EF66020844201DD002500E0DF
:102410000125304600F057FA00BF306800F4007024
:102420000028FAD12846BDE8F08100001CB504461A
:10243000002002210346CA01CDE9001003A106488D
:1024400002F076FA002001F0A1FE1CBD4E464320AA
:102450004241544800000000592B00082DE9F0418A
:102460000446884615461E4600BF40F201612046DC
:1024700000F03DF90028F8D1204600F01FFA00BF17
:102480004FF4A061204600F032F90028F8D06FF038
:1024900001024146204600F039F90AE0781C87B273
:1024A0004EF66020874204DD204600F00CFABDE8BD
:1024B000F08140F20151204600F019F90028EDD0DA
:1024C00040F20151204600F0FEF800BF40F20751F3
:1024D000204600F00CF90128F8D12946204600F0EA
:1024E000EAF800BF40F20251204600F000F900284F
:1024F000F8D03146204600F0DEF800BF40F202512D
:10250000204600F0F4F80028F8D0204600F0DBF96F
:1025100000BF206800F400700028FAD100BFC6E7B1
:102520002DE9F05F04460E469346022001F080F943
:1025300007463148B7FBF0F9B9F13C0F01D34FF032
:102540003C09D4F804A02AF03F0A4AEA090AC4F870
:1025500004A02A4886421ED82748B7FBF0F000F1B5
:102560000108B8F13C0F02D33C20206207E0B8F12B
:10257000020F02D80220206201E0C4F8208070001F
:10258000B7FBF0F5042D00D20425E069C5F30B017B
:102590000843E0612EE01A4886422BD84FF496702B
:1025A00009FB00F04FF47A71B0FBF1F0401C20629F
:1025B000BBF1000F08D106EB4600B7FBF0F5E06970
:1025C00020F48040E06109E006EBC60000EB061055
:1025D000B7FBF0F5E06940F48040E061C5F30B0023
:1025E00008B945F00105E06940F40040E061E069A8
:1025F0002843E061BDE8F09F40420F00A086010043
:10260000801A06002DE9F04104460F46154600BF2A
:1026100040F20161204600F06AF80028F8D1204617
:1026200000F04CF900BF4FF4A061204600F05FF8C5
:102630000028F8D06FF001023946204600F066F815
:102640000AE0701C86B24EF66020864204DD204609
:1026500000F039F9BDE8F08140F20151204600F068
:1026600046F80028EDD040F20151204600F02BF84A
:1026700000BF40F20751204600F039F80128F8D198
:102680002946204600F017F800BF40F202512046CC
:1026900000F02DF80028F8D0204600F014F900BF13
:1026A000206800F400700028FAD100BFD2E701468C
:1026B0000869C0B27047CAB202617047016841F050
:1026C00001010160704710B540F20152914202D100
:1026D000426982690AE000EB9112126801F01F045E
:1026E0000123A3409A4300EB91131A6010BD10B56B
:1026F000024602EB9110006801F01F040123A34081
:10270000184008B1012010BD0020FCE712F1020FB3
:1027100002D121F0010101E041F0010101617047A6
:1027200030B50C460021016821F00201214301600F
:10273000C3F3090342EA0305856030BD2DE9F04784
:102740000646894617461D46089C4FF0010A00BF01
:1027500040F201613046FFF7CAFF0028F8D1022C91
:1027600003D1A1023046FFF72BFA304600F0A6F85D
:1027700000BF4FF4A0613046FFF7B9FF0028F8D042
:102780006FF0010249463046FFF7C0FF0FE008F145
:1027900001001FFA80F84EF66020804507DD3046C4
:1027A00000F091F84FF0000A5046BDE8F08740F283
:1027B00001513046FFF79BFF0028E8D040F201515D
:1027C0003046FFF780FF00BF40F207513046FFF769
:1027D0008EFF0128F8D13046FFF770FF39463046AA
:1027E000FFF769FF00BF40F202513046FFF77FFF5D
:1027F0000028F8D0304600F061F800BF4FF4A06127
:102800003046FFF774FF0028F8D0012249463046D1
:10281000FFF77CFF032C03DA00213046FFF7C8F9ED
:1028200000BF40F201513046FFF761FF0028F8D0A9
:1028300040F201513046FFF746FF012C02D13046ED
:1028400000F041F827E0032C0BD100BF40F2025109
:102850003046FFF74CFF0028F8D000213046FFF744
:10286000A7F9022C0AD100BF40F202513046FFF70F
:102870003EFF0028F8D0304600F025F840F206511F
:102880003046FFF734FF30B13046FFF710FF2870B5
:102890006D1C601E84B2002CD5D100BF306800F4DE
:1028A00000700028FAD14FF480613046FFF780F9BC
:1028B00000213046FFF784F9504676E7016841F47D
:1028C000807101607047016841F4007101607047D8
:1028D0002DE9F0470546884616461C46DDF820904F
:1028E00000BF40F201612846FFF701FF0028F8D140
:1028F0002846FFF7E3FF00BF4FF4A0612846FFF72B
:10290000F6FE0028F8D06FF0010241462846FFF796
:10291000FDFE0AE0781C87B24EF66020874204DD97
:102920002846FFF7D0FFBDE8F08740F20151284666
:10293000FFF7DDFE0028EDD040F201512846FFF7F9
:10294000C2FE00BF40F207512846FFF7D0FE012823
:10295000F8D131462846FFF7AEFE00BF40F20251E3
:102960002846FFF7C4FE0028F8D00CE0217828465E
:10297000FFF7A1FE641C00BF40F202512846FFF79A
:10298000B6FE0028F8D0B9F10000A9F1010101F06C
:10299000FF09EBD12846FFF796FF00BF286800F437
:1029A00000700028FAD100BFBDE700001CB5044646
:1029B0001448FEF7BFFE0220FEF718FFFFF77EF86F
:1029C000FFF75EF8FFF7C8F8FFF7A8F8FFF700F980
:1029D0000D4801F0E5F80020FDF754FD0B4A117A8F
:1029E0005068032200F03AF90020022103468A02CF
:1029F000CDE9001006A1094801F09AFF002001F07E
:102A0000C5FB1CBD004800400010014038010120FA
:102A10004932432042415448000000002D24000860
:102A20001CB50748012100230A03CDE9001005A1C8
:102A3000064801F07DFF01F08BFC00BFFEE70000BF
:102A400000000020494E495400000000AD29000854
:102A50001FB538480078002865D0364A117A50688A
:102A6000FDF7F2FD00284FD0324A117A6B465068CC
:102A70000122FEF7CEF888B99DF800109DF80100FC
:102A800001EB00219DF8020001EB00419DF80300DD
:102A900001EB00642046FDF7F5FC00BFFEF784FD66
:102AA000012820D1FEF796FD224A117A5068224A69
:102AB000FDF7CAFE68B120480068FDF7E3FC01207D
:102AC0001E4908601E4A117A5068022200F0C6F8BA
:102AD00014E0002019490860194A117A506801224F
:102AE00000F0BCF80AE0FEF79FFD002013490860E3
:102AF000134A117A5068012200F0B0F80D4A117A99
:102B00005068FEF764F80DE0FEF78EFD00200B49DB
:102B100008600B4A117A5068012200F09FF80020EB
:102B2000FDF7B0FC00BF0548016806A0FEF7E8FA13
:102B30001FBD0000800101200C00002008000020C3
:102B40003801012063616E20796F752062617468BD
:102B50003F2025640A00000000BFFFF779FF4FF413
:102B6000FA6001F0E5FAF8E72DE9F04103460D4679
:102B7000164600240027A0462A48006800F4E060BA
:102B8000B0F5E06F03D100BF4FF0040830E02548F6
:102B9000006800F4E060B0F5C06F03D101274FF08A
:102BA000030825E01F48006800F4E060B0F5A06F5E
:102BB00002D10227B8461BE01A48006800F4E06022
:102BC000B0F5806F03D103274FF0010810E01548DE
:102BD000006800F4E060B0F5407F03D104274FF0B7
:102BE000000805E04FF4A06000F020F80227B84686
:102BF000C7F1040005FA00F4C8F104010F20C84031
:102C00003040044324010848C45403F01F0101204C
:102C100088405911890001F1E021C1F80001BDE8A7
:102C2000F08100000CED00E000E400E00249014307
:102C3000024A1160704700000000FA050CED00E048
:102C400070B504460D4600231A4629462046FFF774
:102C500005FC2946204600F0DCFE70BDF8B50546AF
:102C60000E46144634B1012C09D0022C22D0032C7C
:102C700058D13CE03146284600F0CBFE57E010200A
:102C800000231A4631460090284600F099FE4FF482
:102C9000406040F29913012231460090284600F02E
:102CA0008FFE10200023022231460090284600F0BB
:102CB00087FE3CE04FF4006040F299130022314659
:102CC0000090284600F07CFE4FF4006040F299131B
:102CD000012231460090284600F072FE10200023A9
:102CE000022231460090284600F06AFE1FE01020C4
:102CF00000231A4631460090284600F061FE10205D
:102D00000023012231460090284600F059FE4FF47E
:102D1000406040F29913022231460090284600F0AC
:102D20004FFE04E03146284600F073FE00BF00BFAE
:102D3000F8BD70B504460D46002302222946204600
:102D4000FFF78CFBFF23032229462046FFF786FB73
:102D500070BD7CB504460D46012001AB002229461A
:102D600000902046FFF7EAFC06460EB900200190CD
:102D70009DF804007CBD000010B500B90A484FF46E
:102D800080321258B2F5803F03D300234FF48032D3
:102D900013504FF4803214581258521C4FF48033A1
:102DA0001A50015510BD0000280100202DE9F04106
:102DB00005460E462748076827480068001D01F0B1
:102DC00074F850B92448006890F82C10012088400D
:102DD00022490968814321480160681CE0B9DEB1DD
:102DE00000BF1F4948681C49096888601A49826801
:102DF0000968CA6018490968091D82685160164946
:102E00000968091D8160164A134909684A6111461B
:102E10000968491C11601AE07C190F480068446079
:102E2000BC4207D20C480168091D0E48006801F039
:102E300060F80CE008480168091D0B48006801F0C3
:102E400058F80A480068844201D208480460BDE886
:102E5000F08100005C00002048000020600000209D
:102E6000687B0120500000204C00002078000020EA
:102E700010B5044601F064F833480068401C32493C
:102E800008603248006840B930480460084600686D
:102E900001280DD100F0B6F90AE02D48006838B9D4
:102EA0002A480068C06AE16A884201D8274804605D
:102EB00028480068401C274908600846006860648C
:102EC00000BF94F82C10012088402349096808436A
:102ED0002149086000BFE16A01EB81011F4A02EB52
:102EE00081014868A0608268E260211D82685160AB
:102EF0008160E16A01EB8101184A02EB81026261A3
:102F0000E16A01EB8101154A52F82110491CE26A7D
:102F100002EB8202114B43F8221000BF00BF01F008
:102F200039F80B48006868B108480068C06AE16A6F
:102F3000884207D24FF0805009490860BFF34F8F95
:102F4000BFF36F8F10BD0000580000204800002024
:102F5000640000207400002060000020D879012067
:102F600004ED00E010B500F0EBFF10480068D0B9A8
:102F70000F4800F0AEFF0F4800F0ABFF0C480E49C1
:102F800008600C480D49086000220C210A2001F05D
:102F900031FB064908600846006820B108A10348D3
:102FA000006801F06FF800F0F5FF10BD9000002000
:102FB0007C7B0120907B0120880000208C00002079
:102FC000546D72510000000010B516E000F0B8FF1B
:102FD0000C48C068C468201D00F067FF0A480068FC
:102FE000401E0949086009480068401E07490860FA
:102FF00000F0D0FF204600F020F8044800680028C8
:10300000E4D110BD547B0120580000205400002062
:1030100070B504460D46206C70B1216CE068014427
:10302000E160D4E90210884201D32168E1602846BA
:10303000226CE168FDF738F970BD10B50446206BCD
:1030400000F0C6FF204600F0C3FF10BD0146084A4D
:10305000126812680AB9012200E000220A600A68B8
:1030600022B9034A1268D268106800E00020704755
:103070008800002030B54FF4F043154800F00704F5
:103080002CB1C01D20F00700114C041B1B1B024675
:10309000104C226000240F4D6C60D018083820F0CE
:1030A00007000D4C206000240B4D2D686C600A4D0C
:1030B0002D682C601146441A4C60074C24680C6043
:1030C000064D4C682C60064D4C682C6030BD0000ED
:1030D000980101202000002028000020300000205E
:1030E0002C00002000BFFFF76FFF06480068012892
:1030F000F9D94FF0805004490860BFF34F8FBFF3F8
:103100006F8FF0E7D879012004ED00E02DE9F04160
:1031100006460D4617469846069C0DB9246000E009
:103120002760E66325640121204601F097FA84F8C0
:103130004C80BDE8F0812DE9F05F82460F46904655
:103140009B460A9E0C9C4FEA8801A522206BFDF746
:10315000BDF8A8F10100216B01EB800929F00709F6
:1031600009F0070008B9012000E0002050B900BFB5
:10317000202080F31188BFF34F8FBFF36F8F00BF04
:1031800000BFFEE77FB1002507E0795D04F1340060
:103190004155785D00B902E06D1C102DF5D300BFDC
:1031A000002143200155102E01D2012000E0002013
:1031B00050B900BF202080F31188BFF34F8FBFF3B9
:1031C0006F8F00BF00BFFEE7102E00D30F26E66210
:1031D000E664201D00F08AFE04F1180000F086FE6F
:1031E0002461C6F11000A06164625A465146484607
:1031F00000F008FB20600B9808B10B980460BDE854
:10320000F09F000010B5002407E004EB84010F4A92
:1032100002EB810000F05DFE641C102CF5D30C481D
:1032200000F057FE0B4800F054FE0B4800F051FE32
:103230000A4800F04EFE0A4800F04BFE04480949D7
:10324000086004480849086010BD0000D8790120D2
:10325000187B01202C7B0120407B0120547B012026
:10326000687B01204C0000205000002010B5014672
:10327000164800E0006803688B42FBD302464368AF
:1032800013448B4204D143684C6823444360014695
:103290000A464B6813440468A34211D10C4C0368DE
:1032A0002468A34208D04B680468646823444B60D8
:1032B00003681B680B6005E0054B1B680B6001E0B1
:1032C00003680B60884200D0016010BD2000002020
:1032D000280000202DE9F04104460D4616461F4601
:1032E0004FF0000865602461B5420CD8F01BA1695D
:1032F000884202D34FF0010811E0211D09480068FF
:1033000000F0F7FD0BE0BE4204D2BD4202D34FF005
:10331000010804E0211D0448006800F0EAFD404671
:10332000BDE8F0818C0000208800002070B50546C3
:1033300000F006FEA86B08B9012400E0002400F0AC
:1033400029FE204670BD000070B505460E460E48A9
:103350000068C068C468201D00F0A7FD94F828002C
:1033600000F0040028B132462946204600F0D6F885
:1033700005E094F8280000F0FE0084F828002046BC
:10338000216A884770BD0000880000207FB57FE07B
:10339000019800287CDB039C606908B9012000E0EB
:1033A000002010B9201D00F080FD684600F0E2F812
:1033B000054601980A2869D2DFE800F06805072E63
:1033C000365806082F3700BF00BF00BF94F828000A
:1033D00040F0010084F828000298A2698118034691
:1033E0002A462046FFF776FFA8B194F8280000F09F
:1033F000040038B10298A26981182A46204600F0DC
:103400008DF805E094F8280000F0FE0084F828000C
:103410002046216A88473AE000BF94F8280000F06F
:10342000FE0084F8280032E000BF94F8280040F045
:10343000010084F828000298A061A06908B1012069
:1034400000E0002050B900BF202080F31188BFF3B6
:103450004F8FBFF36F8F00BF00BFFEE7A069411918
:103460002B462A462046FFF735FF10E094F8280047
:1034700000F0020018B9204600F0AAFD05E094F81B
:10348000280000F0FE0084F8280000E000BF00BF24
:10349000002201A90348006801F04EF900287FF4DA
:1034A00077AF7FBD90000020F8B505460C4600F0D0
:1034B0009DFF684600F05EF80646009820BB44B9C0
:1034C000B54206D801F0FCFB31462846FFF73CFF29
:1034D0001CE03CB10E480068006808B9012000E01B
:1034E00000200446A91B22460A48006800F0FAFDA5
:1034F00001F0E6FB50B94FF0805007490860BFF378
:103500004F8FBFF36F8F01E001F0DAFBF8BD0000D1
:103510008C0000209000002004ED00E070B504460F
:103520000D46164604E0A06905442046216A8847F6
:10353000A06941192B4632462046FFF7CBFE0028F2
:10354000F1D170BD09480068006808B9012000E0A9
:10355000002020B14FF0FF300549086005E0034826
:103560000068C06800680249086070474C0000208D
:103570007800002070B5044601F01EFA05460748A1
:103580000068854204D200F00BF80120206001E0C1
:103590000020206001480560284670BD980000208A
:1035A00070B508E00D480068C06804684FF0FF314E
:1035B0002046FFF7C9FE09480068006808B90120E5
:1035C00000E000200028EDD00448056804480068A9
:1035D000024908600248056070BD000088000020B4
:1035E0008C0000200E480068401C08B9012000E053
:1035F000002050B900BF202080F31188BFF34F8F07
:10360000BFF36F8F00BF00BFFEE700BF202080F335
:103610001188BFF34F8FBFF36F8F00BF00BFFEE76E
:103620003C00002008B500BF6846FFF70FFD0446C8
:1036300020460099FFF738FFFFF7A8FEF4E770B5C2
:10364000044600F07DFC94F9455010E0606A08B92A
:10365000012000E0002038B904F1240001F098FABC
:1036600018B100F01FFE00E003E0681E45B2002D17
:10367000ECDC00BFFF2084F8450000F08BFC00F07C
:103680005FFC94F9445010E0206908B9012000E083
:10369000002048B904F1100001F07AFA08B100F0F6
:1036A00001FE681E45B200E001E0002DECDC00BF29
:1036B000FF2084F8440000F06DFC70BD2DE9F04758
:1036C00004464FF0000900F091FE4948006808B92F
:1036D000FFF7D0FCDCB114F1090F01D9012000E0A3
:1036E000002098B9083404F0070080B104F0070006
:1036F000C0F10808C8F1FF30A04201D2012000E06B
:10370000002008B9444402E0002400E00024012025
:1037100000EBE470002853D0002C51D035480068ED
:1037200084424DD8344E3046056801E02E462D685F
:103730006868A04202D228680028F7D12C480068A7
:1037400085423DD0306800F108092868306068681B
:10375000001B102819D92F1907F0070008B90120FC
:1037600000E0002050B900BF202080F31188BFF393
:103770004F8FBFF36F8F00BF00BFFEE76868001B6D
:1037800078606C603846FFF771FD1A49686809680F
:10379000081A1849086008460068184909688842EC
:1037A00003D21448006815490860686840F000407A
:1037B00068600020286012480068401C10490860BA
:1037C00001F07EFA09F0070008B9012000E00020AE
:1037D00050B900BF202080F31188BFF34F8FBFF393
:1037E0006F8F00BF00BFFEE74846BDE8F0870000CE
:1037F000280000202C0000202000002030000020A5
:1038000034000020001F4FF080730360001F21F080
:1038100001030360001F054B036014380260001FA2
:103820006FF002030360203870470000E5350008A0
:103830002DE9F04F8CB0064600200A903EA090E89B
:10384000004CC068CDE905BECDF810A007900FF27E
:10385000EC0ADAE9000ACDE9020A0FF2E00ADAE935
:10386000000ACDE9000A38480068C0F381000B90D7
:103870000B9820B1012804D0022828D103E0334955
:1038800027E0334925E03048001F006800F03F077B
:103890002D48001F0068C0F3881C2B48001F0068DB
:1038A000C0F30140401C4FEA40092748001F006850
:1038B00000F48008B8F5800F01D1254B00E0234BC0
:1038C000B3FBF7F000FB0CF0B0FBF9F101E01F498E
:1038D00000BF00BF1C480068C0F3031404A8055DC6
:1038E00021FA05F218480068C0F3822402A8055D99
:1038F00022FA05F0099014480068C0F342341DF81C
:10390000045022FA05F0089036B1012E06D0022E9E
:1039100006D0032E0AD106E00A9108E00A9206E0DA
:1039200009980A9003E008980A9000E000BF00BFE1
:103930000A980CB0BDE8F08F000000000000000005
:103940000102030406070809083802400024F400B5
:1039500040787D01074A02EB9011D1F8001800F081
:103960001F0301229A401143024B03EB9012C2F84D
:103970000018704700300240074A02EB9011D1F85E
:10398000001800F01F0301229A409143024B03EB01
:103990009012C2F80018704700300240074A02EB4C
:1039A0009011D1F8001800F01F0301229A40114332
:1039B000024B03EB9012C2F800187047003002402F
:1039C0002DE9F0410746884614461D46069EEBB297
:1039D000A000801DC2B241463846FEF73FFD2B12C3
:1039E000A000C01DC2B241463846FEF737FDF3B213
:1039F000A0000830C2B241463846FEF72FFD331210
:103A0000A0000930C2B241463846FEF727FDBDE8A6
:103A1000F08170B504460D460023FA22294620465F
:103A2000FEF71CFD0023FB2229462046FEF716FD6B
:103A30000023FC2229462046FEF710FD0023FD222C
:103A400029462046FEF70AFD70BD00007CB50446FD
:103A50000D4606A000680190022001AB0022294615
:103A600000902046FEF734FF7CBD000030A200002D
:103A7000002000213D4A126842F480323B4B1A601C
:103A800000BF401C394A126802F4003119B94FF6E0
:103A9000FF729042F5D1354A126802F4003232B911
:103AA00000BF324A126802F40032002AF9D02F4ACD
:103AB0004032126842F080522C4B40331A602C4A3C
:103AC000126842F440422A4B1A60284A08321268AF
:103AD000264B08331A601A46126842F400421A60F4
:103AE0001A46126842F4A0521A60224A1B1F1A603A
:103AF0001A1F126842F080721B1F1A6000BF1B4A17
:103B0000126802F00072002AF9D0194A126842F4D1
:103B10008032174B1A6000BF154A526802F4803297
:103B2000002AF9D0124A126842F40032104B1A608F
:103B300000BF0F4A526802F40032002AF9D00B4A43
:103B40000832126822F00302084B08331A601A4642
:103B5000126842F002021A6000BF044A083212687A
:103B600002F00802002AF8D0704700000038024036
:103B7000007000401964400910B5FFF779FF10BDCF
:103B8000CA43026170470246D06800EA0103106927
:103B9000084010B10BB1012070470020FCE7000085
:103BA00010B504462548844246D1002211462520FE
:103BB000FEF7DAFF40F60140FFF7CCFE41F20410B9
:103BC000FFF7C8FE402207211D48FDF739FE80227D
:103BD00007211B48FDF734FE40230122022118482B
:103BE000FDF75DFE4023022200211548FDF77EFE11
:103BF0008023012202211248FDF751FE8023022278
:103C000000210F48FDF772FE204600F095F84FF4B2
:103C1000E131204600F016F80421204600F035F985
:103C20000821204600F039F9204600F0F3F840F270
:103C30000531204600F0F3F8012010BD00100140CE
:103C4000000402402DE9F04704460D460027B8461F
:103C5000B94600263349601A8C4235D00CDC324814
:103C60002044E8B1B0F5806F1FD0B0F5006F21D0CF
:103C7000B0F5406F32D122E0B0F5806F29D0B0F5B9
:103C8000184F03D0B0F51C4F28D104E00320FFF7F4
:103C9000CFFD074623E00320FFF7CAFD07461EE0DD
:103CA0000220FFF7C5FD074619E00220FFF7C0FD1F
:103CB000074614E00220FFF7BBFD07460FE0022095
:103CC000FFF7B6FD07460AE00220FFF7B1FD074601
:103CD00005E00220FFF7ACFD074600E000BF00BF93
:103CE000E06800F4004070B1780000EB5500B0FBD4
:103CF000F5F64FF6F07006EA0008C6F3420948EA06
:103D00000900A0600CE007EB5500B0FBF5F64FF69C
:103D1000F07006EA000806F00F0948EA0900A06002
:103D2000BDE8F0870078004000BCFFBF014648684E
:103D3000C0F308007047000010B504463349601A0C
:103D40008C424DD00CDC32482044E0B1B0F5806F9D
:103D500022D0B0F5006F31D0B0F5406F52D136E0CF
:103D6000B0F5806F45D0B0F5184F03D0B0F51C4FBB
:103D700048D11AE040F60410FFF710FE40F6041098
:103D8000FFF7FAFD3FE040F61100FFF707FE40F6AF
:103D90001100FFF7F1FD36E040F61200FFF7FEFDDF
:103DA00040F61200FFF7E8FD2DE040F60510FFF7A2
:103DB000F5FD40F60510FFF7DFFD24E040F61300A7
:103DC000FFF7ECFD40F61300FFF7D6FD1BE040F6D1
:103DD0001400FFF7E3FD40F61400FFF7CDFD12E0FD
:103DE00040F61E00FFF7DAFD40F61E00FFF7C4FDA7
:103DF00009E040F61F00FFF7D1FD40F61F00FFF776
:103E0000BBFD00E000BF00BF10BD00000078004017
:103E100000BCFFBFC16841F40051C160704710B5DC
:103E200000EB9112126801F01F040123A3401A4312
:103E300000EB91131A6010BD10B500EB915212689F
:103E4000C1F304440123A3409A4300EB91531A6049
:103E500010BD70B5024600230024C1F3891010582C
:103E600001F01F060125B54000EA050302EB915061
:103E70000068C1F304460125B54000EA050414B109
:103E80000BB1012070BD0020FCE70A460021C1688B
:103E900021F004011143C16070470A460021C16846
:103EA00021F008011143C160704701460A69D1E958
:103EB00001309860D1E9010358605068884201D10F
:103EC00088685060002008611068401E106010680B
:103ED000704700F1080141604FF0FF31816000F14F
:103EE0000801C1600161002101607047002101618A
:103EF000704710B502460B685C1C0CB9106907E0EE
:103F000002F1080000E04068446824689C42FAD945
:103F100044684C604C68A160886041600A61146824
:103F2000641C146010BD42684A6093688B6093689B
:103F300059609160086103685B1C03607047000072
:103F400000BF202080F31188BFF34F8FBFF36F8F26
:103F500000BF0E480068401C0C4908600846006815
:103F6000012812D10A480068C0B208B9012000E057
:103F7000002050B900BF202080F31188BFF34F8F7D
:103F8000BFF36F8F00BF00BFFEE770473C0000200B
:103F900004ED00E00D48006850B900BF202080F318
:103FA0001188BFF34F8FBFF36F8F00BF00BFFEE7D5
:103FB00006480068401E054908600846006820B9A8
:103FC000002080F3118800BF00BF70473C00002034
:103FD00070B506463546002E3BD0083D2C4660683D
:103FE000C00F50B900BF202080F31188BFF34F8F5E
:103FF000BFF36F8F00BF00BFFEE7206808B9012044
:1040000000E0002050B900BF202080F31188BFF3EA
:104010004F8FBFF36F8F00BF00BFFEE76068C00F18
:10402000B8B12068A8B9606820F00040606000F076
:10403000DDF90849606809680844064908602046B7
:10404000FFF714F904480068401C0349086000F0B9
:1040500037FE70BD2C0000203800002000204FF0FB
:10406000E02108618861064800684FF47A71B0FB6E
:10407000F1F0401E4FF0E0214861072008617047D1
:104080001C00002030B502460B46002152B900BF8B
:10409000202484F31188BFF34F8FBFF36F8F00BFCD
:1040A00000BFFEE7BBB1002012E00D4C04EBC004E2
:1040B0006468944203D10A4C04EBC0010AE031B9B0
:1040C000074C54F8304014B9054C04EBC001401CB7
:1040D0000828EAD300BF09B10B604A6030BD000078
:1040E000987901202DE9F04105460E4617462C46E9
:1040F000FFF726FF94F94400401C10B9002084F813
:10410000440094F94500401C10B9002084F8450093
:10411000FFF740FFA06B28B93A46314604F124006E
:1041200000F0E2F82046FFF78AFABDE8F0810000CF
:1041300070B504460025D4B11248006808B90120C2
:1041400000E0002050B900BF202080F31188BFF3A9
:104150004F8FBFF36F8F00BF00BFFEE700F046F93F
:1041600000212046FEF722FE00F0AAFD05463DB9DB
:104170004FF0805004490860BFF34F8FBFF36F8F3B
:1041800070BD00008400002004ED00E070B505461D
:10419000FFF7D6FE15B93348006800E0284604460C
:1041A000201DFFF782FE88B900BFE06A00EB8000A7
:1041B0002D4951F8200040B994F82C100120884076
:1041C0002A49096881432948016000BFA06A18B1E3
:1041D00004F11800FFF769FE25480068401C2449D7
:1041E000086020480068844209D1211D2148FFF75A
:1041F0009AFE21480068401C1F49086006E01F48DD
:104200000068401E1D490860FFF79CF9FFF7C2FED9
:1042100014480068844202D02046FEF70EFF18487A
:104220000068E8B10F480068844219D11548006859
:1042300008B9012000E0002050B900BF202080F321
:104240001188BFF34F8FBFF36F8F00BF00BFFEE732
:104250004FF080500C490860BFF34F8FBFF36F8F52
:1042600070BD000048000020D879012060000020C7
:1042700074000020547B01205400002058000020CE
:10428000640000208400002004ED00E00349096878
:104290000160034909684160704700007000002018
:1042A0005C00002001200149086070476C0000207C
:1042B00070B504460D4654B900BF202080F3118824
:1042C000BFF34F8FBFF36F8F00BF00BFFEE70548FE
:1042D000016818312046FFF70CFE01212846FEF741
:1042E00065FD70BD4800002070B504460E461546B9
:1042F00054B900BF202080F31188BFF34F8FBFF364
:104300006F8F00BF00BFFEE700BF60680F490968FC
:10431000C8610E49826809680A620C490968183147
:104320008268516009490968183181600749096844
:104330008C622168491C216000BF0DB14FF0FF362F
:1043400029463046FEF732FD70BD000048000020CF
:104350001CB51E4800210B464FF48072CDE90010B9
:104360001BA11D4800F0E4FA0446012C02D100F024
:104370006FFD0446012C15D100BF202080F3118869
:10438000BFF34F8FBFF36F8F00BF4FF0FF30134964
:10439000086001201249086000201249086000F0FE
:1043A00075F810E0601C08B1012000E0002050B951
:1043B00000BF202080F31188BFF34F8FBFF36F8FB2
:1043C00000BF00BFFEE7084800681CBD7C0000205D
:1043D00049444C4500000000E5300008780000200A
:1043E000640000205C00002080000020024800687B
:1043F000401C014908607047840000201E48006886
:1044000018B101201D49086034E000201B490860F4
:1044100000BF1B480068B0FA80F0C0F11F0101EB3B
:104420008100184A52F8200008B1012000E0002065
:1044300050B900BF202080F31188BFF34F8FBFF326
:104440006F8F00BF00BFFEE700BF01EB81020D4B85
:1044500003EB820042685268426000F10802436840
:10446000934201D1C26842604268D268064B1A602A
:1044700000BF00BF70470000840000206C000020D7
:1044800060000020D8790120480000200EB5524875
:1044900000685249884201D0012000E0002050B954
:1044A00000BF202080F31188BFF34F8FBFF36F8FC1
:1044B00000BF00BFFEE7484800684849491E8842DF
:1044C00001D0012000E0002050B900BF202080F37F
:1044D0001188BFF34F8FBFF36F8F00BF00BFFEE7A0
:1044E000002001903E49084600780290FF200A46CD
:1044F00010700846007800909DF8000000F0200041
:10450000384A10701046007850B900BF202080F360
:104510001188BFF34F8FBFF36F8F00BF00BFFEE75F
:104520009DF800202020904308B9012000E00020E1
:1045300050B900BF202080F31188BFF34F8FBFF325
:104540006F8F00BF00BFFEE707E00198401C01909D
:104550009DF800004006000E00909DF8000000F05D
:1045600080008028F1D00198082803D100201E4A3D
:10457000106004E00198C0F107001B4A10601A485F
:1045800000680002184A10601046008800F4E060DD
:1045900010609DF80800124A10700F482030006823
:1045A00040F47F000C49203108600846006840F064
:1045B0007F400860FFF752FD00200C490860FBF7C0
:1045C00025FE0B48006840F0404009490860FBF7B1
:1045D00009FE00200EBD000000ED00E071C20F4199
:1045E00000E400E040000020440000203C000020E7
:1045F00034EF00E02DE9F84305460E461746002447
:10460000E5B1601EB0FBF5F0B04217D305FB06F034
:1046100010F1510F12D805FB06F808F15000FFF712
:104620004DF80446B4B1A14609F150093B464A464B
:10463000314628460094FEF769FD0BE054B900BFEF
:10464000202080F31188BFF34F8FBFF36F8F00BF1F
:1046500000BFFEE72046BDE8F88300002DE9F041E9
:1046600005460E4601272C4654B900BF202080F392
:104670001188BFF34F8FBFF36F8F00BF00BFFEE7FE
:10468000002C42D0E06B00283FD04FF0FF31E06BB0
:10469000B1FBF0F0216C884237D3FFF751FCD4E92D
:1046A0000F12206801FB0200A0600020A0632068B8
:1046B0006060E06B401E226C216800FB0211E1602B
:1046C000FF2084F8440084F845009EB9206908B9A9
:1046D000012000E00020A8B904F1100000F058FA11
:1046E00080B14FF0805013490860BFF34F8FBFF384
:1046F0006F8F07E004F11000FFF7EBFB04F12400DB
:10470000FFF7E7FBFFF746FC00E000270FB10120B1
:1047100000E0002050B900BF202080F31188BFF3D3
:104720004F8FBFF36F8F00BF00BFFEE73846BDE875
:10473000F081000004ED00E02DE9F74183B005466B
:104740000E464FF000082C4654B900BF202080F3DD
:104750001188BFF34F8FBFF36F8F00BF00BFFEE71D
:104760000EB9206C08B9012000E0002050B900BF4C
:10477000202080F31188BFF34F8FBFF36F8F00BFEE
:1047800000BFFEE700F008F908B9059808B9012054
:1047900000E0002050B900BF202080F31188BFF353
:1047A0004F8FBFF36F8F00BF00BFFEE700BFFFF763
:1047B000C7FBA76BF7B131462046FEF729FC781EF0
:1047C000A063206908B9012000E0002060B904F16D
:1047D000100000F0DDF938B14FF080502F4908602B
:1047E000BFF34F8FBFF36F8FFFF7D4FB012006B0ED
:1047F000BDE8F081059818B9FFF7CCFB0020F6E77B
:10480000B8F1000F04D101A8FFF740FD4FF00108F7
:10481000FFF7C0FBFFF7EAFDFFF792FB94F94400B6
:10482000401C10B9002084F8440094F94500401C55
:1048300010B9002084F84500FFF7ACFB05A901A8DA
:1048400000F02EF8F0B92046FEF770FDA0B104F19B
:1048500024000599FFF72CFD2046FEF7F0FE00F03E
:104860002FFA0028A3D14FF080500C490860BFF305
:104870004F8FBFF36F8F9AE72046FEF7E0FE00F000
:104880001FFA94E72046FEF7DAFE00F019FA2046F8
:10489000FEF74CFD00288AD00020A8E704ED00E0D8
:1048A00070B505460C4655B900BF202080F311882D
:1048B000BFF34F8FBFF36F8F00BF00BFFEE754B948
:1048C00000BF202080F31188BFF34F8FBFF36F8F9D
:1048D00000BF00BFFEE7FFF733FB134802686868BC
:1048E000131A2068401C08B9002619E00F492868EF
:1048F0000968884206D06868904203D801260020E3
:1049000020600DE02068984207D92068C01A206016
:104910002846FFF7BBFC002602E0002020600126AD
:10492000FFF738FB304670BD5C00002070000020AF
:104930002DE9FF4F85B0804689461746DDE912AB69
:10494000B800FEF7BBFE064676B15C20FEF7B6FE69
:1049500004462CB15C212046FBF7BFFC266304E033
:104960003046FFF735FB00E000247CB10020CDE9A4
:1049700000ABCDE902403A4649464046089BFEF767
:10498000DAFB2046FEF774FA012501E04FF0FF350F
:10499000284609B0BDE8F08F0549096809B901202A
:1049A00005E00449096809B9022000E000207047C9
:1049B000640000208400002001490868704700005E
:1049C0005C0000202DE9F0414FF0000865480068C8
:1049D00000287DD164480068451C634805601DBB04
:1049E00000BF62480068006808B9012000E00020AC
:1049F00050B900BF202080F31188BFF34F8FBFF361
:104A00006F8F00BF00BFFEE758480768584800682E
:104A1000564908605648076056480068401C55498A
:104A20000860FEF78FFD00BF5348006885427ED3C3
:104A300000BF4E480068006808B9012000E000206F
:104A400020B14FF0FF304C4908606FE047480068E4
:104A5000C068C4686668B54202D24748066065E02F
:104A600000BF6069D4E902128A60D4E902214A6079
:104A7000211D42688A4201D1E168416000226261E1
:104A80000168491E016000BFA06AA0B100BFA06A12
:104A9000D4E907128A60D4E907214A6004F11801B9
:104AA00042688A4201D1216A41600022A262016803
:104AB000491E016000BF00BF94F82C1001208840FF
:104AC0002E49096808432D49086000BFE16A00E0EB
:104AD0003FE001EB81012A4A02EB81014868A060B6
:104AE0008268E260211D826851608160E16A01EBA9
:104AF0008101234A02EB81026261E16A01EB8101DB
:104B00001F4A52F82110491CE26A02EB82021C4B38
:104B100043F8221000BF00BF1A49E06A0968C96A59
:104B2000884286D94FF0010883E700E000BF1548AE
:104B30000068C06A00EB8000114951F8200001288C
:104B400001D94FF001081048006808B14FF0010882
:104B500004E00E480068401C0C4908604046BDE86F
:104B6000F0810000840000205C0000204C00002048
:104B7000500000207000002078000020600000201D
:104B8000D8790120480000206C0000206800002037
:104B900070B50346D868C16851B900BF202080F3C2
:104BA0001188BFF34F8FBFF36F8F00BF00BFFEE7C9
:104BB00000BF886AD1E90745A560D1E9075465605F
:104BC00001F118044568A54201D10C6A4460002532
:104BD0008D620468641E046000BF334800680028CA
:104BE00042D100BF4869D1E90245A560D1E902542C
:104BF00065600C1D4568A54201D1CC684460002564
:104C00004D610468641E046000BF00BF91F82C4031
:104C10000120A040254C24682043244C206000BF84
:104C2000CC6A04EB8404224D05EB84046068886040
:104C30008568CD600C1D85686C608460CC6A04EB6F
:104C400084041B4D05EB84054D61CC6A04EB8404A0
:104C5000174D55F82440641CCD6A05EB8505144EAC
:104C600046F8254000BF11E000BF124C6068C861E3
:104C700085680D6201F1180485686C6084600D4DD3
:104C80008D622C462468641C2C6000BF0A4CC86AE4
:104C90002468E46AA04204D901220120074C206064
:104CA00000E00022104670BD84000020600000205B
:104CB000D8790120407B0120480000206C000020B2
:104CC00070B5002400265948006808B1012000E0B2
:104CD000002050B900BF202080F31188BFF34F8F10
:104CE000BFF36F8F00BF00BFFEE7FFF729F94F4802
:104CF0000068401E4D4908600846006800287DD1C4
:104D00004B480068002879D063E04A48C068C4680E
:104D100000BFA06AD4E907128A60D4E907214A607B
:104D200004F1180142688A4201D1216A41600022DF
:104D3000A2620168491E016000BF00BF6069D4E93A
:104D400002128A60D4E902214A60211D42688A4227
:104D500001D1E1684160002262610168491E016081
:104D600000BF00BF94F82C10012088403249096828
:104D700008433149086000BFE16A01EB81012F4A15
:104D800002EB81014868A0608268E260211D8268B0
:104D900051608160E16A01EB8101284A02EB8102E6
:104DA0006261E16A01EB8101244A52F82110491C39
:104DB000E26A02EB8202214B43F8221000BF00BFDF
:104DC0001F49E06A0968C96A884202D901201D4961
:104DD00008601848006808B9012000E00020002899
:104DE00093D00CB1FEF7AEFB1748056875B100BF54
:104DF000FFF7E8FD20B10120124900E011E0086052
:104E00006D1E002DF4D100200F4908600D48006888
:104E100038B1012630070D490860BFF34F8FBFF34B
:104E20006F8FFFF7B7F8304670BD00008400002098
:104E300058000020407B012060000020D87901202C
:104E4000480000206C0000206800002004ED00E015
:104E50001CB50024FEF786F80D48006850B10D48D7
:104E6000022100230A02CDE900100BA10C48FFF734
:104E70005FFD044654B900BF202080F31188BFF3C2
:104E80004F8FBFF36F8F00BF00BFFEE720461CBDF2
:104E90009000002094000020546D7220537663002F
:104EA00025360008F8013000D80278023003680384
:104EB000E8033800F8037803D84E0008000000200B
:104EC00028010000201100080050000828010020DF
:104ED0009080010030110008000000000000000078
:104EE00000000000000000000000000000000000C2
:104EF0000000000000C2EB0B0000000000000000FA
:104F000000000000000000000000000000000000A1
:104F100000000000AAAAAAAA0000000000000000E9
:104F20000000000000000000000000000000000081
:104F30000000000000000000000000000000000071
:104F40000000000000000000000000000000000061
:104F500000000000000000000F0000000000000042
:104F60000000000000000000000000000000000041
:104F700000000000000000000000FFFFFFFFFFFF37
:104F8000640000009BFFFFFF6400000001FE01FEC3
:104F900001000000000C0240000C0240001402401E
:104FA000100000002000000010000000121000009F
:104FB0000004000000080000030C030C050C0000B6
:104FC000000002400008024000040240010000000E
:104FD0000020000000400000000C020C010C00004A
:104FE000010000000020000000400000000201005D
:104FF0000D0E062828000000000000000000000040
:04000005080001AD41
:00000001FF
